{
  "_format": "hh-sol-artifact-1",
  "contractName": "DappCinemas",
  "sourceName": "contracts/DappCinemas.sol",
  "abi": [
    {
      "anonymous": false,
      "inputs": [
        {
          "indexed": false,
          "internalType": "string",
          "name": "actionType",
          "type": "string"
        }
      ],
      "name": "Action",
      "type": "event"
    },
    {
      "anonymous": false,
      "inputs": [
        {
          "indexed": true,
          "internalType": "address",
          "name": "previousOwner",
          "type": "address"
        },
        {
          "indexed": true,
          "internalType": "address",
          "name": "newOwner",
          "type": "address"
        }
      ],
      "name": "OwnershipTransferred",
      "type": "event"
    },
    {
      "inputs": [
        {
          "internalType": "string",
          "name": "name",
          "type": "string"
        },
        {
          "internalType": "string",
          "name": "imageUrl",
          "type": "string"
        },
        {
          "internalType": "string",
          "name": "genre",
          "type": "string"
        },
        {
          "internalType": "string",
          "name": "description",
          "type": "string"
        }
      ],
      "name": "addMovie",
      "outputs": [],
      "stateMutability": "nonpayable",
      "type": "function"
    },
    {
      "inputs": [
        {
          "internalType": "uint256",
          "name": "movieId",
          "type": "uint256"
        },
        {
          "internalType": "uint256",
          "name": "ticketCost",
          "type": "uint256"
        },
        {
          "internalType": "uint256",
          "name": "startTime",
          "type": "uint256"
        },
        {
          "internalType": "uint256",
          "name": "endTime",
          "type": "uint256"
        },
        {
          "internalType": "uint256",
          "name": "capacity",
          "type": "uint256"
        },
        {
          "internalType": "uint256",
          "name": "day",
          "type": "uint256"
        }
      ],
      "name": "addSlot",
      "outputs": [],
      "stateMutability": "nonpayable",
      "type": "function"
    },
    {
      "inputs": [
        {
          "internalType": "uint256",
          "name": "movieId",
          "type": "uint256"
        },
        {
          "internalType": "uint256",
          "name": "day",
          "type": "uint256"
        },
        {
          "internalType": "uint256",
          "name": "id",
          "type": "uint256"
        }
      ],
      "name": "buyTicket",
      "outputs": [],
      "stateMutability": "payable",
      "type": "function"
    },
    {
      "inputs": [
        {
          "internalType": "uint256",
          "name": "movieId",
          "type": "uint256"
        }
      ],
      "name": "checkForTicketHolders",
      "outputs": [
        {
          "internalType": "bool",
          "name": "",
          "type": "bool"
        }
      ],
      "stateMutability": "view",
      "type": "function"
    },
    {
      "inputs": [
        {
          "internalType": "uint256",
          "name": "id",
          "type": "uint256"
        }
      ],
      "name": "deleteMovie",
      "outputs": [],
      "stateMutability": "nonpayable",
      "type": "function"
    },
    {
      "inputs": [
        {
          "internalType": "uint256",
          "name": "id",
          "type": "uint256"
        },
        {
          "internalType": "uint256",
          "name": "movieId",
          "type": "uint256"
        }
      ],
      "name": "deleteSlot",
      "outputs": [],
      "stateMutability": "nonpayable",
      "type": "function"
    },
    {
      "inputs": [
        {
          "internalType": "uint256",
          "name": "id",
          "type": "uint256"
        }
      ],
      "name": "getMovie",
      "outputs": [
        {
          "components": [
            {
              "internalType": "uint256",
              "name": "id",
              "type": "uint256"
            },
            {
              "internalType": "string",
              "name": "name",
              "type": "string"
            },
            {
              "internalType": "string",
              "name": "imageUrl",
              "type": "string"
            },
            {
              "internalType": "string",
              "name": "genre",
              "type": "string"
            },
            {
              "internalType": "string",
              "name": "description",
              "type": "string"
            },
            {
              "internalType": "uint256",
              "name": "timestamp",
              "type": "uint256"
            },
            {
              "internalType": "bool",
              "name": "deleted",
              "type": "bool"
            }
          ],
          "internalType": "struct DappCinemas.MovieStruct",
          "name": "",
          "type": "tuple"
        }
      ],
      "stateMutability": "view",
      "type": "function"
    },
    {
      "inputs": [],
      "name": "getMovies",
      "outputs": [
        {
          "components": [
            {
              "internalType": "uint256",
              "name": "id",
              "type": "uint256"
            },
            {
              "internalType": "string",
              "name": "name",
              "type": "string"
            },
            {
              "internalType": "string",
              "name": "imageUrl",
              "type": "string"
            },
            {
              "internalType": "string",
              "name": "genre",
              "type": "string"
            },
            {
              "internalType": "string",
              "name": "description",
              "type": "string"
            },
            {
              "internalType": "uint256",
              "name": "timestamp",
              "type": "uint256"
            },
            {
              "internalType": "bool",
              "name": "deleted",
              "type": "bool"
            }
          ],
          "internalType": "struct DappCinemas.MovieStruct[]",
          "name": "Movies",
          "type": "tuple[]"
        }
      ],
      "stateMutability": "view",
      "type": "function"
    },
    {
      "inputs": [
        {
          "internalType": "uint256",
          "name": "movieId",
          "type": "uint256"
        },
        {
          "internalType": "uint256",
          "name": "id",
          "type": "uint256"
        }
      ],
      "name": "getSlot",
      "outputs": [
        {
          "components": [
            {
              "internalType": "uint256",
              "name": "id",
              "type": "uint256"
            },
            {
              "internalType": "uint256",
              "name": "movieId",
              "type": "uint256"
            },
            {
              "internalType": "uint256",
              "name": "ticketCost",
              "type": "uint256"
            },
            {
              "internalType": "uint256",
              "name": "startTime",
              "type": "uint256"
            },
            {
              "internalType": "uint256",
              "name": "endTime",
              "type": "uint256"
            },
            {
              "internalType": "uint256",
              "name": "capacity",
              "type": "uint256"
            },
            {
              "internalType": "uint256",
              "name": "seatings",
              "type": "uint256"
            },
            {
              "internalType": "bool",
              "name": "deleted",
              "type": "bool"
            },
            {
              "internalType": "bool",
              "name": "published",
              "type": "bool"
            },
            {
              "internalType": "uint256",
              "name": "day",
              "type": "uint256"
            }
          ],
          "internalType": "struct DappCinemas.TimeSlotStruct",
          "name": "",
          "type": "tuple"
        }
      ],
      "stateMutability": "view",
      "type": "function"
    },
    {
      "inputs": [
        {
          "internalType": "uint256",
          "name": "id",
          "type": "uint256"
        },
        {
          "internalType": "uint256",
          "name": "day",
          "type": "uint256"
        }
      ],
      "name": "getSlotForDay",
      "outputs": [
        {
          "components": [
            {
              "internalType": "uint256",
              "name": "id",
              "type": "uint256"
            },
            {
              "internalType": "uint256",
              "name": "movieId",
              "type": "uint256"
            },
            {
              "internalType": "uint256",
              "name": "ticketCost",
              "type": "uint256"
            },
            {
              "internalType": "uint256",
              "name": "startTime",
              "type": "uint256"
            },
            {
              "internalType": "uint256",
              "name": "endTime",
              "type": "uint256"
            },
            {
              "internalType": "uint256",
              "name": "capacity",
              "type": "uint256"
            },
            {
              "internalType": "uint256",
              "name": "seatings",
              "type": "uint256"
            },
            {
              "internalType": "bool",
              "name": "deleted",
              "type": "bool"
            },
            {
              "internalType": "bool",
              "name": "published",
              "type": "bool"
            },
            {
              "internalType": "uint256",
              "name": "day",
              "type": "uint256"
            }
          ],
          "internalType": "struct DappCinemas.TimeSlotStruct",
          "name": "",
          "type": "tuple"
        }
      ],
      "stateMutability": "view",
      "type": "function"
    },
    {
      "inputs": [
        {
          "internalType": "uint256",
          "name": "day",
          "type": "uint256"
        }
      ],
      "name": "getSlots",
      "outputs": [
        {
          "components": [
            {
              "internalType": "uint256",
              "name": "id",
              "type": "uint256"
            },
            {
              "internalType": "uint256",
              "name": "movieId",
              "type": "uint256"
            },
            {
              "internalType": "uint256",
              "name": "ticketCost",
              "type": "uint256"
            },
            {
              "internalType": "uint256",
              "name": "startTime",
              "type": "uint256"
            },
            {
              "internalType": "uint256",
              "name": "endTime",
              "type": "uint256"
            },
            {
              "internalType": "uint256",
              "name": "capacity",
              "type": "uint256"
            },
            {
              "internalType": "uint256",
              "name": "seatings",
              "type": "uint256"
            },
            {
              "internalType": "bool",
              "name": "deleted",
              "type": "bool"
            },
            {
              "internalType": "bool",
              "name": "published",
              "type": "bool"
            },
            {
              "internalType": "uint256",
              "name": "day",
              "type": "uint256"
            }
          ],
          "internalType": "struct DappCinemas.TimeSlotStruct[]",
          "name": "Timelines",
          "type": "tuple[]"
        }
      ],
      "stateMutability": "view",
      "type": "function"
    },
    {
      "inputs": [
        {
          "internalType": "uint256",
          "name": "movieId",
          "type": "uint256"
        }
      ],
      "name": "getSlotsForMovie",
      "outputs": [
        {
          "components": [
            {
              "internalType": "uint256",
              "name": "id",
              "type": "uint256"
            },
            {
              "internalType": "uint256",
              "name": "movieId",
              "type": "uint256"
            },
            {
              "internalType": "uint256",
              "name": "ticketCost",
              "type": "uint256"
            },
            {
              "internalType": "uint256",
              "name": "startTime",
              "type": "uint256"
            },
            {
              "internalType": "uint256",
              "name": "endTime",
              "type": "uint256"
            },
            {
              "internalType": "uint256",
              "name": "capacity",
              "type": "uint256"
            },
            {
              "internalType": "uint256",
              "name": "seatings",
              "type": "uint256"
            },
            {
              "internalType": "bool",
              "name": "deleted",
              "type": "bool"
            },
            {
              "internalType": "bool",
              "name": "published",
              "type": "bool"
            },
            {
              "internalType": "uint256",
              "name": "day",
              "type": "uint256"
            }
          ],
          "internalType": "struct DappCinemas.TimeSlotStruct[]",
          "name": "Timelines",
          "type": "tuple[]"
        }
      ],
      "stateMutability": "view",
      "type": "function"
    },
    {
      "inputs": [
        {
          "internalType": "uint256",
          "name": "movieId",
          "type": "uint256"
        },
        {
          "internalType": "uint256",
          "name": "day",
          "type": "uint256"
        }
      ],
      "name": "getTicketHolders",
      "outputs": [
        {
          "components": [
            {
              "internalType": "uint256",
              "name": "id",
              "type": "uint256"
            },
            {
              "internalType": "uint256",
              "name": "movieId",
              "type": "uint256"
            },
            {
              "internalType": "uint256",
              "name": "slotId",
              "type": "uint256"
            },
            {
              "internalType": "address",
              "name": "owner",
              "type": "address"
            },
            {
              "internalType": "uint256",
              "name": "cost",
              "type": "uint256"
            },
            {
              "internalType": "uint256",
              "name": "timestamp",
              "type": "uint256"
            },
            {
              "internalType": "uint256",
              "name": "day",
              "type": "uint256"
            },
            {
              "internalType": "bool",
              "name": "refunded",
              "type": "bool"
            }
          ],
          "internalType": "struct DappCinemas.TicketStruct[]",
          "name": "",
          "type": "tuple[]"
        }
      ],
      "stateMutability": "view",
      "type": "function"
    },
    {
      "inputs": [],
      "name": "owner",
      "outputs": [
        {
          "internalType": "address",
          "name": "",
          "type": "address"
        }
      ],
      "stateMutability": "view",
      "type": "function"
    },
    {
      "inputs": [
        {
          "internalType": "uint256",
          "name": "id",
          "type": "uint256"
        },
        {
          "internalType": "uint256",
          "name": "movieId",
          "type": "uint256"
        },
        {
          "internalType": "uint256",
          "name": "day",
          "type": "uint256"
        }
      ],
      "name": "publishTimeSlot",
      "outputs": [],
      "stateMutability": "nonpayable",
      "type": "function"
    },
    {
      "inputs": [],
      "name": "renounceOwnership",
      "outputs": [],
      "stateMutability": "nonpayable",
      "type": "function"
    },
    {
      "inputs": [],
      "name": "returnOwner",
      "outputs": [
        {
          "internalType": "address",
          "name": "",
          "type": "address"
        }
      ],
      "stateMutability": "view",
      "type": "function"
    },
    {
      "inputs": [
        {
          "internalType": "address",
          "name": "newOwner",
          "type": "address"
        }
      ],
      "name": "transferOwnership",
      "outputs": [],
      "stateMutability": "nonpayable",
      "type": "function"
    },
    {
      "inputs": [
        {
          "internalType": "uint256",
          "name": "id",
          "type": "uint256"
        },
        {
          "internalType": "string",
          "name": "name",
          "type": "string"
        },
        {
          "internalType": "string",
          "name": "imageUrl",
          "type": "string"
        },
        {
          "internalType": "string",
          "name": "genre",
          "type": "string"
        },
        {
          "internalType": "string",
          "name": "description",
          "type": "string"
        }
      ],
      "name": "updateMovie",
      "outputs": [],
      "stateMutability": "nonpayable",
      "type": "function"
    },
    {
      "inputs": [
        {
          "internalType": "uint256",
          "name": "movieId",
          "type": "uint256"
        },
        {
          "internalType": "uint256",
          "name": "id",
          "type": "uint256"
        }
      ],
      "name": "withdraw",
      "outputs": [],
      "stateMutability": "nonpayable",
      "type": "function"
    }
  ],
  "bytecode": "0x608060405234801561001057600080fd5b5061001a3361001f565b61006f565b600080546001600160a01b038381166001600160a01b0319831681178455604051919092169283917f8be0079c531659141344cd1fd0a4f28419497f9722a3daafe3b4186f6b6457e09190a35050565b612c1d806200007f6000396000f3fe60806040526004361061011f5760003560e01c80638da5cb5b116100a0578063c4c6710d11610064578063c4c6710d1461036a578063ec3f15c51461037d578063ee7990491461039d578063f2fde38b146103bd578063fc0b98b1146103dd57600080fd5b80638da5cb5b146102ba5780638f70d440146102ec57806394a927fe1461030c578063af0220251461032a578063bd4c5d241461034a57600080fd5b80635fe975d8116100e75780635fe975d8146101f8578063608928e11461022557806365621036146102655780636b4f6cb714610285578063715018a6146102a557600080fd5b8063179ffe761461012457806320ced1051461015a57806323d5bd36146101875780632c53b406146101b4578063441a3e70146101d6575b600080fd5b34801561013057600080fd5b5061014461013f3660046124a2565b6103fd565b6040516101519190612590565b60405180910390f35b34801561016657600080fd5b5061017a6101753660046125aa565b610695565b60405161015191906125cc565b34801561019357600080fd5b506101a76101a23660046124a2565b610763565b60405161015191906126d1565b3480156101c057600080fd5b506101c9610907565b6040516101519190612720565b3480156101e257600080fd5b506101f66101f13660046125aa565b610c9d565b005b34801561020457600080fd5b506102186102133660046125aa565b610ec6565b6040516101519190612782565b34801561023157600080fd5b506102556102403660046124a2565b60009081526006602052604090205460ff1690565b6040519015158152602001610151565b34801561027157600080fd5b506102186102803660046125aa565b610f80565b34801561029157600080fd5b506101f66102a03660046124a2565b610fa8565b3480156102b157600080fd5b506101f661109c565b3480156102c657600080fd5b506000546001600160a01b03165b6040516001600160a01b039091168152602001610151565b3480156102f857600080fd5b506101f6610307366004612834565b6110b0565b34801561031857600080fd5b506000546001600160a01b03166102d4565b34801561033657600080fd5b506101f66103453660046125aa565b61134d565b34801561035657600080fd5b506101f66103653660046128e1565b6114b6565b6101f6610378366004612998565b611773565b34801561038957600080fd5b506101f6610398366004612998565b611b06565b3480156103a957600080fd5b506101f66103b83660046129c4565b611c90565b3480156103c957600080fd5b506101f66103d8366004612a07565b611fb6565b3480156103e957600080fd5b506101a76103f83660046124a2565b61202f565b61040561240c565b600360008381526020019081526020016000206040518060e00160405290816000820154815260200160018201805461043d90612a30565b80601f016020809104026020016040519081016040528092919081815260200182805461046990612a30565b80156104b65780601f1061048b576101008083540402835291602001916104b6565b820191906000526020600020905b81548152906001019060200180831161049957829003601f168201915b505050505081526020016002820180546104cf90612a30565b80601f01602080910402602001604051908101604052809291908181526020018280546104fb90612a30565b80156105485780601f1061051d57610100808354040283529160200191610548565b820191906000526020600020905b81548152906001019060200180831161052b57829003601f168201915b5050505050815260200160038201805461056190612a30565b80601f016020809104026020016040519081016040528092919081815260200182805461058d90612a30565b80156105da5780601f106105af576101008083540402835291602001916105da565b820191906000526020600020905b8154815290600101906020018083116105bd57829003601f168201915b505050505081526020016004820180546105f390612a30565b80601f016020809104026020016040519081016040528092919081815260200182805461061f90612a30565b801561066c5780601f106106415761010080835404028352916020019161066c565b820191906000526020600020905b81548152906001019060200180831161064f57829003601f168201915b50505091835250506005820154602082015260069091015460ff16151560409091015292915050565b60008281526009602090815260408083208484528252808320805482518185028101850190935280835260609492939192909184015b82821015610756576000848152602090819020604080516101008101825260088602909201805483526001808201548486015260028201549284019290925260038101546001600160a01b0316606084015260048101546080840152600581015460a0840152600681015460c08401526007015460ff16151560e083015290835290920191016106cb565b5050505090505b92915050565b60606000805b60008481526008602052604090205481101561079f578161078981612a80565b925050808061079790612a80565b915050610769565b508067ffffffffffffffff8111156107b9576107b9612791565b6040519080825280602002602001820160405280156107f257816020015b6107df61244b565b8152602001906001900390816107d75790505b5091506000805b6000858152600860205260409020548110156108ff57600085815260086020526040812080548390811061082f5761082f612a99565b600091825260209182902060408051610140810182526009909302909101805483526001810154938301939093526002830154908201526003820154606082015260048201546080820152600582015460a0820152600682015460c0820152600782015460ff808216151560e08401526101009182900416151590820152600890910154610120820152855190915081908690859081106108d2576108d2612a99565b602002602001018190525082806108e890612a80565b9350505080806108f790612a80565b9150506107f9565b505050919050565b6060600060015b60015481116109505760008181526003602052604090206006015460ff1661093e578161093a81612a80565b9250505b8061094881612a80565b91505061090e565b508067ffffffffffffffff81111561096a5761096a612791565b6040519080825280602002602001820160405280156109a357816020015b61099061240c565b8152602001906001900390816109885790505b509150600060015b6001548111610c975760008181526003602052604090206006015460ff16610c8557600360008281526020019081526020016000206040518060e001604052908160008201548152602001600182018054610a0590612a30565b80601f0160208091040260200160405190810160405280929190818152602001828054610a3190612a30565b8015610a7e5780601f10610a5357610100808354040283529160200191610a7e565b820191906000526020600020905b815481529060010190602001808311610a6157829003601f168201915b50505050508152602001600282018054610a9790612a30565b80601f0160208091040260200160405190810160405280929190818152602001828054610ac390612a30565b8015610b105780601f10610ae557610100808354040283529160200191610b10565b820191906000526020600020905b815481529060010190602001808311610af357829003601f168201915b50505050508152602001600382018054610b2990612a30565b80601f0160208091040260200160405190810160405280929190818152602001828054610b5590612a30565b8015610ba25780601f10610b7757610100808354040283529160200191610ba2565b820191906000526020600020905b815481529060010190602001808311610b8557829003601f168201915b50505050508152602001600482018054610bbb90612a30565b80601f0160208091040260200160405190810160405280929190818152602001828054610be790612a30565b8015610c345780601f10610c0957610100808354040283529160200191610c34565b820191906000526020600020905b815481529060010190602001808311610c1757829003601f168201915b50505091835250506005820154602082015260069091015460ff1615156040909101528451859084908110610c6b57610c6b612a99565b60200260200101819052508180610c8190612a80565b9250505b80610c8f81612a80565b9150506109ab565b50505090565b610ca56121cb565b6000828152600860205260409020805482908110610cc557610cc5612a99565b906000526020600020906009020160070160019054906101000a900460ff16610d2f5760405162461bcd60e51b8152602060048201526017602482015276151a5b59481cdb1bdd08191bd95cdb89dd08195e1a5cdd604a1b60448201526064015b60405180910390fd5b6000828152600860205260409020805482908110610d4f57610d4f612a99565b906000526020600020906009020160040154610d69612225565b11610db65760405162461bcd60e51b815260206004820152601760248201527f4d6f76696520686173206e6f7420656e646564207965740000000000000000006044820152606401610d26565b6000828152600860205260408120805483908110610dd657610dd6612a99565b906000526020600020906009020160060154600860008581526020019081526020016000208381548110610e0c57610e0c612a99565b906000526020600020906009020160020154610e289190612aaf565b905060008111610e715760405162461bcd60e51b81526020600482015260146024820152734e6f206d6f6e657920746f20776974686472617760601b6044820152606401610d26565b6000838152600860205260408120805484908110610e9157610e91612a99565b906000526020600020906009020160060181905550610ec1610ebb6000546001600160a01b031690565b82612240565b505050565b610ece61244b565b6000838152600860205260409020805483908110610eee57610eee612a99565b600091825260209182902060408051610140810182526009909302909101805483526001810154938301939093526002830154908201526003820154606082015260048201546080820152600582015460a0820152600682015460c0820152600782015460ff808216151560e08401526101009182900416151590820152600890910154610120820152905092915050565b610f8861244b565b6000828152600760205260409020805484908110610eee57610eee612a99565b610fb06121cb565b60008181526004602052604090205460ff16151560011461100a5760405162461bcd60e51b81526020600482015260146024820152736d6f76696520646f65736e27742065786973742160601b6044820152606401610d26565b60008181526006602052604090205460ff16156110695760405162461bcd60e51b815260206004820181905260248201527f6d6f76696520616c726561647920686173207469636b657420686f6c646572736044820152606401610d26565b6000908152600360209081526040808320600601805460ff19908116600117909155600490925290912080549091169055565b6110a46121cb565b6110ae60006122a0565b565b6110b86121cb565b60008451116110ff5760405162461bcd60e51b8152602060048201526013602482015272135bdd9a59481b985b59481c995c5d5a5c9959606a1b6044820152606401610d26565b600083511161114b5760405162461bcd60e51b8152602060048201526018602482015277135bdd9a59481a5b5859d9481d5c9b081c995c5d5a5c995960421b6044820152606401610d26565b60008251116111935760405162461bcd60e51b8152602060048201526014602482015273135bdd9a594819d95b9c99481c995c5d5a5c995960621b6044820152606401610d26565b60008151116111e45760405162461bcd60e51b815260206004820152601a60248201527f4d6f766965206465736372697074696f6e2072657175697265640000000000006044820152606401610d26565b6111f2600180546001019055565b6111fa61240c565b600154815260208101859052604081018490526060810183905260808101829052611223612225565b60a0820152806003600061123660015490565b81526020808201929092526040016000208251815590820151600182019061125e9082612b14565b50604082015160028201906112739082612b14565b50606082015160038201906112889082612b14565b506080820151600482019061129d9082612b14565b5060a0820151600582015560c0909101516006909101805491151560ff1992831617905560018054600090815260046020908152604091829020805490941690921790925581518181526018918101919091527f4d6f766965206164646564207375636365737366756c6c790000000000000000918101919091527f8b2c14fe955d044ef95ba32b88d2ceb87c6f73fcefdcebe906063a6d75690f27906060015b60405180910390a15050505050565b6113556121cb565b60008281526005602052604090205460ff166113ac5760405162461bcd60e51b81526020600482015260166024820152751d1a5b595cdb1bdd08191bd95cdb89dd08195e1a5cdd60521b6044820152606401610d26565b600081815260086020526040902080546113e9918391859081106113d2576113d2612a99565b9060005260206000209060090201600801546122f0565b60008181526008602052604090208054600191908490811061140d5761140d612a99565b906000526020600020906009020160070160006101000a81548160ff02191690831515021790555060016007600060086000858152602001908152602001600020858154811061145f5761145f612a99565b9060005260206000209060090201600801548152602001908152602001600020838154811061149057611490612a99565b60009182526020909120600990910201600701805460ff19169115159190911790555050565b6114be6121cb565b60008581526004602052604090205460ff1615156001146115185760405162461bcd60e51b81526020600482015260146024820152736d6f76696520646f65736e27742065786973742160601b6044820152606401610d26565b60008581526006602052604090205460ff16156115775760405162461bcd60e51b815260206004820181905260248201527f6d6f76696520616c726561647920686173207469636b657420686f6c646572736044820152606401610d26565b60008451116115be5760405162461bcd60e51b8152602060048201526013602482015272135bdd9a59481b985b59481c995c5d5a5c9959606a1b6044820152606401610d26565b600083511161160a5760405162461bcd60e51b8152602060048201526018602482015277135bdd9a59481a5b5859d9481d5c9b081c995c5d5a5c995960421b6044820152606401610d26565b60008251116116525760405162461bcd60e51b8152602060048201526014602482015273135bdd9a594819d95b9c99481c995c5d5a5c995960621b6044820152606401610d26565b60008151116116a35760405162461bcd60e51b815260206004820152601a60248201527f4d6f766965206465736372697074696f6e2072657175697265640000000000006044820152606401610d26565b60008581526003602052604090206001016116be8582612b14565b5060008581526003602052604090206002016116da8482612b14565b506000858152600360208190526040909120016116f78382612b14565b5060008581526003602052604090206004016117138282612b14565b507f8b2c14fe955d044ef95ba32b88d2ceb87c6f73fcefdcebe906063a6d75690f2760405161133e906020808252601a908201527f4d6f7669652075706461746564207375636365737366756c6c79000000000000604082015260600190565b600083815260086020526040902080548290811061179357611793612a99565b9060005260206000209060090201600201543410156117ea5760405162461bcd60e51b8152602060048201526013602482015272125b9cdd59999a58da595b9d08185b5bdd5b9d606a1b6044820152606401610d26565b600083815260086020526040902080548290811061180a5761180a612a99565b906000526020600020906009020160070160019054906101000a900460ff1661186f5760405162461bcd60e51b8152602060048201526017602482015276151a5b59481cdb1bdd08191bd95cdb89dd08195e1a5cdd604a1b6044820152606401610d26565b600083815260086020526040902080548290811061188f5761188f612a99565b9060005260206000209060090201600501546008600085815260200190815260200160002082815481106118c5576118c5612a99565b9060005260206000209060090201600601541061192e5760405162461bcd60e51b815260206004820152602160248201527f43617061636974792066756c6c2c20626f6f6b20746865206e65787420736c6f6044820152601d60fa1b6064820152608401610d26565b61193c600280546001019055565b61198f60405180610100016040528060008152602001600081526020016000815260200160006001600160a01b031681526020016000815260200160008152602001600081526020016000151581525090565b60025481526020810184905260c08101839052604081018290523460808201523360608201526119bd612225565b60a082015260008381526007602052604090208054839081106119e2576119e2612a99565b600091825260208220600660099092020101805491611a0083612a80565b90915550506000848152600860205260409020805483908110611a2557611a25612a99565b600091825260208220600660099092020101805491611a4383612a80565b909155505060008481526009602090815260408083209483529381528382208054600181810183559184528284208551600890920201908155848301518183015584860151600282015560608501516003820180546001600160a01b039092166001600160a01b03199092169190911790556080850151600482015560a0850151600582015560c085015160068083019190915560e0909501516007909101805491151560ff199283161790559683529290529190912080549093161790915550565b611b0e6121cb565b60008381526005602052604090205460ff16611b655760405162461bcd60e51b81526020600482015260166024820152751d1a5b595cdb1bdd08191bd95cdb89dd08195e1a5cdd60521b6044820152606401610d26565b6000828152600860205260409020805484908110611b8557611b85612a99565b906000526020600020906009020160070160019054906101000a900460ff1615611bf15760405162461bcd60e51b815260206004820152601a60248201527f74696d65736c6f7420616c7265616479207075626c69736865640000000000006044820152606401610d26565b600082815260086020526040902080546001919085908110611c1557611c15612a99565b906000526020600020906009020160070160016101000a81548160ff0219169083151502179055506001600760008381526020019081526020016000208481548110611c6357611c63612a99565b906000526020600020906009020160070160016101000a81548160ff021916908315150217905550505050565b611c986121cb565b60008211611ce85760405162461bcd60e51b815260206004820181905260248201527f4361706163697479206d7573742062652067726561746572207468616e2030216044820152606401610d26565b60008511611d445760405162461bcd60e51b8152602060048201526024808201527f5469636b6574207072696365206d7573742062652067726561746572207468616044820152636e20302160e01b6064820152608401610d26565b611d4c61244b565b6007600083815260200190815260200160002080549050816000018181525050868160200181815250508581604001818152505084816060018181525050838160800181815250508181610120018181525050828160a0018181525050600160056000600860008b815260200190815260200160002080549050815260200190815260200160002060006101000a81548160ff02191690831515021790555060086000888152602001908152602001600020819080600181540180825580915050600190039060005260206000209060090201600090919091909150600082015181600001556020820151816001015560408201518160020155606082015181600301556080820151816004015560a0820151816005015560c0820151816006015560e08201518160070160006101000a81548160ff0219169083151502179055506101008201518160070160016101000a81548160ff021916908315150217905550610120820151816008015550506007600083815260200190815260200160002060086000898152602001908152602001600020826000015181548110611ef757611ef7612a99565b600091825260208083208454600181810187559585529190932060099283029093018054919092029092019182558281015492820192909255600280830154908201556003808301549082015560048083015490820155600580830154908201556006808301549082015560078083018054918301805460ff938416151560ff19821681178355925461010090819004909416151590930261ff001990921661ffff199093169290921717905560089182015491015550505050505050565b611fbe6121cb565b6001600160a01b0381166120235760405162461bcd60e51b815260206004820152602660248201527f4f776e61626c653a206e6577206f776e657220697320746865207a65726f206160448201526564647265737360d01b6064820152608401610d26565b61202c816122a0565b50565b60606000805b60008481526007602052604090205481101561206b578161205581612a80565b925050808061206390612a80565b915050612035565b508067ffffffffffffffff81111561208557612085612791565b6040519080825280602002602001820160405280156120be57816020015b6120ab61244b565b8152602001906001900390816120a35790505b5091506000805b6000858152600760205260409020548110156108ff5760008581526007602052604081208054839081106120fb576120fb612a99565b600091825260209182902060408051610140810182526009909302909101805483526001810154938301939093526002830154908201526003820154606082015260048201546080820152600582015460a0820152600682015460c0820152600782015460ff808216151560e084015261010091829004161515908201526008909101546101208201528551909150819086908590811061219e5761219e612a99565b602002602001018190525082806121b490612a80565b9350505080806121c390612a80565b9150506120c5565b6000546001600160a01b031633146110ae5760405162461bcd60e51b815260206004820181905260248201527f4f776e61626c653a2063616c6c6572206973206e6f7420746865206f776e65726044820152606401610d26565b600080612234426103e8612aaf565b61075d906103e8612bd4565b6000826001600160a01b03168260405160006040518083038185875af1925050503d806000811461228d576040519150601f19603f3d011682016040523d82523d6000602084013e612292565b606091505b5050905080610ec157600080fd5b600080546001600160a01b038381166001600160a01b0319831681178455604051919092169283917f8be0079c531659141344cd1fd0a4f28419497f9722a3daafe3b4186f6b6457e09190a35050565b60005b6000838152600960209081526040808320858452909152902054811015610ec1576000838152600960209081526040808320858452909152812080548390811061233f5761233f612a99565b906000526020600020906008020190508381600101541480156123675750600781015460ff16155b156123a25760078101805460ff1916600117905561238560026123b5565b600381015460048201546123a2916001600160a01b031690612240565b50806123ad81612a80565b9150506122f3565b8054806124045760405162461bcd60e51b815260206004820152601b60248201527f436f756e7465723a2064656372656d656e74206f766572666c6f7700000000006044820152606401610d26565b600019019055565b6040518060e001604052806000815260200160608152602001606081526020016060815260200160608152602001600081526020016000151581525090565b60405180610140016040528060008152602001600081526020016000815260200160008152602001600081526020016000815260200160008152602001600015158152602001600015158152602001600081525090565b6000602082840312156124b457600080fd5b5035919050565b6000815180845260005b818110156124e1576020818501810151868301820152016124c5565b506000602082860101526020601f19601f83011685010191505092915050565b805182526000602082015160e0602085015261252060e08501826124bb565b90506040830151848203604086015261253982826124bb565b9150506060830151848203606086015261255382826124bb565b9150506080830151848203608086015261256d82826124bb565b91505060a083015160a085015260c0830151151560c08501528091505092915050565b6020815260006125a36020830184612501565b9392505050565b600080604083850312156125bd57600080fd5b50508035926020909101359150565b602080825282518282018190526000919060409081850190868401855b8281101561265757815180518552868101518786015285810151868601526060808201516001600160a01b0316908601526080808201519086015260a0808201519086015260c0808201519086015260e09081015115159085015261010090930192908501906001016125e9565b5091979650505050505050565b805182526020810151602083015260408101516040830152606081015160608301526080810151608083015260a081015160a083015260c081015160c083015260e08101516126b760e084018215159052565b506101008181015115159083015261012090810151910152565b6020808252825182820181905260009190848201906040850190845b8181101561271457612700838551612664565b9284019261014092909201916001016126ed565b50909695505050505050565b6000602080830181845280855180835260408601915060408160051b870101925083870160005b8281101561277557603f19888603018452612763858351612501565b94509285019290850190600101612747565b5092979650505050505050565b610140810161075d8284612664565b634e487b7160e01b600052604160045260246000fd5b600082601f8301126127b857600080fd5b813567ffffffffffffffff808211156127d3576127d3612791565b604051601f8301601f19908116603f011681019082821181831017156127fb576127fb612791565b8160405283815286602085880101111561281457600080fd5b836020870160208301376000602085830101528094505050505092915050565b6000806000806080858703121561284a57600080fd5b843567ffffffffffffffff8082111561286257600080fd5b61286e888389016127a7565b9550602087013591508082111561288457600080fd5b612890888389016127a7565b945060408701359150808211156128a657600080fd5b6128b2888389016127a7565b935060608701359150808211156128c857600080fd5b506128d5878288016127a7565b91505092959194509250565b600080600080600060a086880312156128f957600080fd5b85359450602086013567ffffffffffffffff8082111561291857600080fd5b61292489838a016127a7565b9550604088013591508082111561293a57600080fd5b61294689838a016127a7565b9450606088013591508082111561295c57600080fd5b61296889838a016127a7565b9350608088013591508082111561297e57600080fd5b5061298b888289016127a7565b9150509295509295909350565b6000806000606084860312156129ad57600080fd5b505081359360208301359350604090920135919050565b60008060008060008060c087890312156129dd57600080fd5b505084359660208601359650604086013595606081013595506080810135945060a0013592509050565b600060208284031215612a1957600080fd5b81356001600160a01b03811681146125a357600080fd5b600181811c90821680612a4457607f821691505b602082108103612a6457634e487b7160e01b600052602260045260246000fd5b50919050565b634e487b7160e01b600052601160045260246000fd5b600060018201612a9257612a92612a6a565b5060010190565b634e487b7160e01b600052603260045260246000fd5b808202811582820484141761075d5761075d612a6a565b601f821115610ec157600081815260208120601f850160051c81016020861015612aed5750805b601f850160051c820191505b81811015612b0c57828155600101612af9565b505050505050565b815167ffffffffffffffff811115612b2e57612b2e612791565b612b4281612b3c8454612a30565b84612ac6565b602080601f831160018114612b775760008415612b5f5750858301515b600019600386901b1c1916600185901b178555612b0c565b600085815260208120601f198616915b82811015612ba657888601518255948401946001909101908401612b87565b5085821015612bc45787850151600019600388901b60f8161c191681555b5050505050600190811b01905550565b8082018082111561075d5761075d612a6a56fea26469706673582212201f0ef99e60a942f3fba4670a50f617ad83d671b359be87c2ea121dae7972d56964736f6c63430008110033",
  "linkReferences": {},
  "deployedLinkReferences": {}
}